{
  "_format": "hh-sol-artifact-1",
  "contractName": "MainAMM",
  "sourceName": "contracts/amm.sol",
  "abi": [
    {
      "inputs": [
        {
          "internalType": "address",
          "name": "_t0",
          "type": "address"
        },
        {
          "internalType": "address",
          "name": "_t1",
          "type": "address"
        }
      ],
      "stateMutability": "nonpayable",
      "type": "constructor"
    },
    {
      "inputs": [
        {
          "internalType": "address",
          "name": "spender",
          "type": "address"
        },
        {
          "internalType": "uint256",
          "name": "allowance",
          "type": "uint256"
        },
        {
          "internalType": "uint256",
          "name": "needed",
          "type": "uint256"
        }
      ],
      "name": "ERC20InsufficientAllowance",
      "type": "error"
    },
    {
      "inputs": [
        {
          "internalType": "address",
          "name": "sender",
          "type": "address"
        },
        {
          "internalType": "uint256",
          "name": "balance",
          "type": "uint256"
        },
        {
          "internalType": "uint256",
          "name": "needed",
          "type": "uint256"
        }
      ],
      "name": "ERC20InsufficientBalance",
      "type": "error"
    },
    {
      "inputs": [
        {
          "internalType": "address",
          "name": "approver",
          "type": "address"
        }
      ],
      "name": "ERC20InvalidApprover",
      "type": "error"
    },
    {
      "inputs": [
        {
          "internalType": "address",
          "name": "receiver",
          "type": "address"
        }
      ],
      "name": "ERC20InvalidReceiver",
      "type": "error"
    },
    {
      "inputs": [
        {
          "internalType": "address",
          "name": "sender",
          "type": "address"
        }
      ],
      "name": "ERC20InvalidSender",
      "type": "error"
    },
    {
      "inputs": [
        {
          "internalType": "address",
          "name": "spender",
          "type": "address"
        }
      ],
      "name": "ERC20InvalidSpender",
      "type": "error"
    },
    {
      "inputs": [],
      "name": "ErrContractAlreadyInitialized",
      "type": "error"
    },
    {
      "inputs": [],
      "name": "ErrForbidden",
      "type": "error"
    },
    {
      "inputs": [],
      "name": "ErrInputIsZero",
      "type": "error"
    },
    {
      "inputs": [],
      "name": "ErrNotEnoughLiquidity",
      "type": "error"
    },
    {
      "inputs": [],
      "name": "ErrReserveIsZero",
      "type": "error"
    },
    {
      "inputs": [
        {
          "internalType": "uint256",
          "name": "t0",
          "type": "uint256"
        },
        {
          "internalType": "uint256",
          "name": "t1",
          "type": "uint256"
        }
      ],
      "name": "ErrTokenLessThanExpectedAmount",
      "type": "error"
    },
    {
      "inputs": [],
      "name": "ErrTokensTransferFailed",
      "type": "error"
    },
    {
      "inputs": [],
      "name": "ErrTxFailed",
      "type": "error"
    },
    {
      "inputs": [],
      "name": "ErrWrongTokenAddress",
      "type": "error"
    },
    {
      "anonymous": false,
      "inputs": [
        {
          "indexed": true,
          "internalType": "address",
          "name": "owner",
          "type": "address"
        },
        {
          "indexed": true,
          "internalType": "address",
          "name": "spender",
          "type": "address"
        },
        {
          "indexed": false,
          "internalType": "uint256",
          "name": "value",
          "type": "uint256"
        }
      ],
      "name": "Approval",
      "type": "event"
    },
    {
      "anonymous": false,
      "inputs": [
        {
          "indexed": true,
          "internalType": "address",
          "name": "from",
          "type": "address"
        },
        {
          "indexed": true,
          "internalType": "address",
          "name": "to",
          "type": "address"
        },
        {
          "indexed": false,
          "internalType": "uint256",
          "name": "value",
          "type": "uint256"
        }
      ],
      "name": "Transfer",
      "type": "event"
    },
    {
      "inputs": [
        {
          "internalType": "uint256",
          "name": "_t0Amount",
          "type": "uint256"
        },
        {
          "internalType": "uint256",
          "name": "_t1Amount",
          "type": "uint256"
        }
      ],
      "name": "addLiquidity",
      "outputs": [
        {
          "internalType": "uint256",
          "name": "amount0",
          "type": "uint256"
        },
        {
          "internalType": "uint256",
          "name": "amount1",
          "type": "uint256"
        },
        {
          "internalType": "uint256",
          "name": "lpShare",
          "type": "uint256"
        }
      ],
      "stateMutability": "nonpayable",
      "type": "function"
    },
    {
      "inputs": [
        {
          "internalType": "address",
          "name": "owner",
          "type": "address"
        },
        {
          "internalType": "address",
          "name": "spender",
          "type": "address"
        }
      ],
      "name": "allowance",
      "outputs": [
        {
          "internalType": "uint256",
          "name": "",
          "type": "uint256"
        }
      ],
      "stateMutability": "view",
      "type": "function"
    },
    {
      "inputs": [
        {
          "internalType": "address",
          "name": "spender",
          "type": "address"
        },
        {
          "internalType": "uint256",
          "name": "value",
          "type": "uint256"
        }
      ],
      "name": "approve",
      "outputs": [
        {
          "internalType": "bool",
          "name": "",
          "type": "bool"
        }
      ],
      "stateMutability": "nonpayable",
      "type": "function"
    },
    {
      "inputs": [
        {
          "internalType": "address",
          "name": "account",
          "type": "address"
        }
      ],
      "name": "balanceOf",
      "outputs": [
        {
          "internalType": "uint256",
          "name": "",
          "type": "uint256"
        }
      ],
      "stateMutability": "view",
      "type": "function"
    },
    {
      "inputs": [
        {
          "internalType": "address",
          "name": "",
          "type": "address"
        }
      ],
      "name": "balances",
      "outputs": [
        {
          "internalType": "uint256",
          "name": "",
          "type": "uint256"
        }
      ],
      "stateMutability": "view",
      "type": "function"
    },
    {
      "inputs": [
        {
          "internalType": "address",
          "name": "_t0",
          "type": "address"
        },
        {
          "internalType": "address",
          "name": "_t1",
          "type": "address"
        },
        {
          "internalType": "uint256",
          "name": "_t0Amount",
          "type": "uint256"
        },
        {
          "internalType": "uint256",
          "name": "_t1Amount",
          "type": "uint256"
        }
      ],
      "name": "bootstrap",
      "outputs": [
        {
          "internalType": "uint256",
          "name": "",
          "type": "uint256"
        }
      ],
      "stateMutability": "nonpayable",
      "type": "function"
    },
    {
      "inputs": [
        {
          "internalType": "uint256",
          "name": "t0NewAmount",
          "type": "uint256"
        },
        {
          "internalType": "uint256",
          "name": "t1NewAmount",
          "type": "uint256"
        }
      ],
      "name": "calculateExpectedAmounts",
      "outputs": [
        {
          "internalType": "uint256",
          "name": "expectedT1",
          "type": "uint256"
        },
        {
          "internalType": "uint256",
          "name": "expectedT0",
          "type": "uint256"
        }
      ],
      "stateMutability": "view",
      "type": "function"
    },
    {
      "inputs": [],
      "name": "decimals",
      "outputs": [
        {
          "internalType": "uint8",
          "name": "",
          "type": "uint8"
        }
      ],
      "stateMutability": "view",
      "type": "function"
    },
    {
      "inputs": [],
      "name": "feePercentage",
      "outputs": [
        {
          "internalType": "uint256",
          "name": "",
          "type": "uint256"
        }
      ],
      "stateMutability": "view",
      "type": "function"
    },
    {
      "inputs": [
        {
          "internalType": "address",
          "name": "t",
          "type": "address"
        },
        {
          "internalType": "uint256",
          "name": "amount",
          "type": "uint256"
        }
      ],
      "name": "getExpectedAmount",
      "outputs": [
        {
          "internalType": "uint256",
          "name": "",
          "type": "uint256"
        }
      ],
      "stateMutability": "view",
      "type": "function"
    },
    {
      "inputs": [],
      "name": "lastPricePnt",
      "outputs": [
        {
          "internalType": "uint256",
          "name": "",
          "type": "uint256"
        }
      ],
      "stateMutability": "view",
      "type": "function"
    },
    {
      "inputs": [],
      "name": "name",
      "outputs": [
        {
          "internalType": "string",
          "name": "",
          "type": "string"
        }
      ],
      "stateMutability": "view",
      "type": "function"
    },
    {
      "inputs": [],
      "name": "ratioK",
      "outputs": [
        {
          "internalType": "uint256",
          "name": "",
          "type": "uint256"
        }
      ],
      "stateMutability": "view",
      "type": "function"
    },
    {
      "inputs": [
        {
          "internalType": "address",
          "name": "tokenIn",
          "type": "address"
        },
        {
          "internalType": "uint256",
          "name": "amountIn",
          "type": "uint256"
        }
      ],
      "name": "swap",
      "outputs": [
        {
          "internalType": "address",
          "name": "",
          "type": "address"
        },
        {
          "internalType": "uint256",
          "name": "",
          "type": "uint256"
        }
      ],
      "stateMutability": "nonpayable",
      "type": "function"
    },
    {
      "inputs": [],
      "name": "symbol",
      "outputs": [
        {
          "internalType": "string",
          "name": "",
          "type": "string"
        }
      ],
      "stateMutability": "view",
      "type": "function"
    },
    {
      "inputs": [],
      "name": "t0",
      "outputs": [
        {
          "internalType": "contract ERC20",
          "name": "",
          "type": "address"
        }
      ],
      "stateMutability": "view",
      "type": "function"
    },
    {
      "inputs": [],
      "name": "t0Addr",
      "outputs": [
        {
          "internalType": "address",
          "name": "",
          "type": "address"
        }
      ],
      "stateMutability": "view",
      "type": "function"
    },
    {
      "inputs": [
        {
          "internalType": "address",
          "name": "",
          "type": "address"
        }
      ],
      "name": "t0LpBalance",
      "outputs": [
        {
          "internalType": "uint256",
          "name": "",
          "type": "uint256"
        }
      ],
      "stateMutability": "view",
      "type": "function"
    },
    {
      "inputs": [],
      "name": "t0t1Ratio",
      "outputs": [
        {
          "internalType": "uint256",
          "name": "",
          "type": "uint256"
        }
      ],
      "stateMutability": "view",
      "type": "function"
    },
    {
      "inputs": [],
      "name": "t1",
      "outputs": [
        {
          "internalType": "contract ERC20",
          "name": "",
          "type": "address"
        }
      ],
      "stateMutability": "view",
      "type": "function"
    },
    {
      "inputs": [],
      "name": "t1Addr",
      "outputs": [
        {
          "internalType": "address",
          "name": "",
          "type": "address"
        }
      ],
      "stateMutability": "view",
      "type": "function"
    },
    {
      "inputs": [
        {
          "internalType": "address",
          "name": "",
          "type": "address"
        }
      ],
      "name": "t1LpBalance",
      "outputs": [
        {
          "internalType": "uint256",
          "name": "",
          "type": "uint256"
        }
      ],
      "stateMutability": "view",
      "type": "function"
    },
    {
      "inputs": [],
      "name": "t1t0Ratio",
      "outputs": [
        {
          "internalType": "uint256",
          "name": "",
          "type": "uint256"
        }
      ],
      "stateMutability": "view",
      "type": "function"
    },
    {
      "inputs": [],
      "name": "totalSupply",
      "outputs": [
        {
          "internalType": "uint256",
          "name": "",
          "type": "uint256"
        }
      ],
      "stateMutability": "view",
      "type": "function"
    },
    {
      "inputs": [
        {
          "internalType": "address",
          "name": "to",
          "type": "address"
        },
        {
          "internalType": "uint256",
          "name": "value",
          "type": "uint256"
        }
      ],
      "name": "transfer",
      "outputs": [
        {
          "internalType": "bool",
          "name": "",
          "type": "bool"
        }
      ],
      "stateMutability": "nonpayable",
      "type": "function"
    },
    {
      "inputs": [
        {
          "internalType": "address",
          "name": "from",
          "type": "address"
        },
        {
          "internalType": "address",
          "name": "to",
          "type": "address"
        },
        {
          "internalType": "uint256",
          "name": "value",
          "type": "uint256"
        }
      ],
      "name": "transferFrom",
      "outputs": [
        {
          "internalType": "bool",
          "name": "",
          "type": "bool"
        }
      ],
      "stateMutability": "nonpayable",
      "type": "function"
    }
  ],
  "bytecode": "0x610120604052620f42406005556103e86006556f01000000000000000000000000000000600760006101000a8154817dffffffffffffffffffffffffffffffffffffffffffffffffffffffffffff02191690837dffffffffffffffffffffffffffffffffffffffffffffffffffffffffffff16021790555060006007601e6101000a81548160ff0219169083151502179055506103e56080908152506000601060006101000a81548160ff0219169083151502179055503480156100c257600080fd5b50604051613c8c380380613c8c83398181016040528101906100e491906105ad565b6040518060400160405280600b81526020017f4d6f73694c70546f6b656e0000000000000000000000000000000000000000008152506040518060400160405280600581526020017f4d73784c70000000000000000000000000000000000000000000000000000000815250816003908161015f919061083d565b50806004908161016f919061083d565b5050508173ffffffffffffffffffffffffffffffffffffffff1660a08173ffffffffffffffffffffffffffffffffffffffff16815250508173ffffffffffffffffffffffffffffffffffffffff1660e08173ffffffffffffffffffffffffffffffffffffffff16815250508073ffffffffffffffffffffffffffffffffffffffff1660c08173ffffffffffffffffffffffffffffffffffffffff16815250508073ffffffffffffffffffffffffffffffffffffffff166101008173ffffffffffffffffffffffffffffffffffffffff168152505033600860006101000a81548173ffffffffffffffffffffffffffffffffffffffff021916908373ffffffffffffffffffffffffffffffffffffffff1602179055506102963060055461029d60201b60201c565b50506109fd565b600073ffffffffffffffffffffffffffffffffffffffff168273ffffffffffffffffffffffffffffffffffffffff160361030f5760006040517fec442f05000000000000000000000000000000000000000000000000000000008152600401610306919061091e565b60405180910390fd5b6103216000838361032560201b60201c565b5050565b600073ffffffffffffffffffffffffffffffffffffffff168373ffffffffffffffffffffffffffffffffffffffff160361037757806002600082825461036b9190610968565b9250508190555061044a565b60008060008573ffffffffffffffffffffffffffffffffffffffff1673ffffffffffffffffffffffffffffffffffffffff16815260200190815260200160002054905081811015610403578381836040517fe450d38c0000000000000000000000000000000000000000000000000000000081526004016103fa939291906109ab565b60405180910390fd5b8181036000808673ffffffffffffffffffffffffffffffffffffffff1673ffffffffffffffffffffffffffffffffffffffff16815260200190815260200160002081905550505b600073ffffffffffffffffffffffffffffffffffffffff168273ffffffffffffffffffffffffffffffffffffffff160361049357806002600082825403925050819055506104e0565b806000808473ffffffffffffffffffffffffffffffffffffffff1673ffffffffffffffffffffffffffffffffffffffff168152602001908152602001600020600082825401925050819055505b8173ffffffffffffffffffffffffffffffffffffffff168373ffffffffffffffffffffffffffffffffffffffff167fddf252ad1be2c89b69c2b068fc378daa952ba7f163c4a11628f55a4df523b3ef8360405161053d91906109e2565b60405180910390a3505050565b600080fd5b600073ffffffffffffffffffffffffffffffffffffffff82169050919050565b600061057a8261054f565b9050919050565b61058a8161056f565b811461059557600080fd5b50565b6000815190506105a781610581565b92915050565b600080604083850312156105c4576105c361054a565b5b60006105d285828601610598565b92505060206105e385828601610598565b9150509250929050565b600081519050919050565b7f4e487b7100000000000000000000000000000000000000000000000000000000600052604160045260246000fd5b7f4e487b7100000000000000000000000000000000000000000000000000000000600052602260045260246000fd5b6000600282049050600182168061066e57607f821691505b60208210810361068157610680610627565b5b50919050565b60008190508160005260206000209050919050565b60006020601f8301049050919050565b600082821b905092915050565b6000600883026106e97fffffffffffffffffffffffffffffffffffffffffffffffffffffffffffffffff826106ac565b6106f386836106ac565b95508019841693508086168417925050509392505050565b6000819050919050565b6000819050919050565b600061073a6107356107308461070b565b610715565b61070b565b9050919050565b6000819050919050565b6107548361071f565b61076861076082610741565b8484546106b9565b825550505050565b600090565b61077d610770565b61078881848461074b565b505050565b5b818110156107ac576107a1600082610775565b60018101905061078e565b5050565b601f8211156107f1576107c281610687565b6107cb8461069c565b810160208510156107da578190505b6107ee6107e68561069c565b83018261078d565b50505b505050565b600082821c905092915050565b6000610814600019846008026107f6565b1980831691505092915050565b600061082d8383610803565b9150826002028217905092915050565b610846826105ed565b67ffffffffffffffff81111561085f5761085e6105f8565b5b6108698254610656565b6108748282856107b0565b600060209050601f8311600181146108a75760008415610895578287015190505b61089f8582610821565b865550610907565b601f1984166108b586610687565b60005b828110156108dd578489015182556001820191506020850194506020810190506108b8565b868310156108fa57848901516108f6601f891682610803565b8355505b6001600288020188555050505b505050505050565b6109188161056f565b82525050565b6000602082019050610933600083018461090f565b92915050565b7f4e487b7100000000000000000000000000000000000000000000000000000000600052601160045260246000fd5b60006109738261070b565b915061097e8361070b565b925082820190508082111561099657610995610939565b5b92915050565b6109a58161070b565b82525050565b60006060820190506109c0600083018661090f565b6109cd602083018561099c565b6109da604083018461099c565b949350505050565b60006020820190506109f7600083018461099c565b92915050565b60805160a05160c05160e05161010051613179610b13600039600081816108450152818161090b01528181610a0201528181610a7901528181610d0f0152818161142f01528181611896015281816118be01528181611b0001528181611d6401528181611ebd01528181611f960152818161222f0152612252015260008181610872015281816109a201528181610ad901528181610cb9015281816113da015281816117d9015281816118430152818161191101528181611b6001528181611cf101528181611e5301528181611f5601526122a5015260008181610ec8015281816117fd01526120b8015260008181610df20152818161134201526120140152600081816112fb01526121e801526131796000f3fe608060405234801561001057600080fd5b506004361061018e5760003560e01c806384db15d3116100de578063c116690c11610097578063deade5be11610071578063deade5be14610503578063e0cc260114610533578063fb5343f314610551578063ff6d03611461056f5761018e565b8063c116690c14610484578063d004f0f7146104a2578063dd62ed3e146104d35761018e565b806384db15d3146103aa5780638b0782e5146103c857806395d89b41146103e65780639cd441da14610404578063a001ecdd14610436578063a9059cbb146104545761018e565b806327e235e31161014b578063313ce56711610125578063313ce567146102fc57806353eb7d7c1461031a5780635cbb24d81461034a57806370a082311461037a5761018e565b806327e235e31461027d5780632c2e2d6c146102ad5780632de45040146102cb5761018e565b806306fdde0314610193578063095ea7b3146101b157806318058610146101e157806318160ddd146102115780631a9ee0d21461022f57806323b872dd1461024d575b600080fd5b61019b61058d565b6040516101a89190612a51565b60405180910390f35b6101cb60048036038101906101c69190612b0c565b61061f565b6040516101d89190612b67565b60405180910390f35b6101fb60048036038101906101f69190612b0c565b610642565b6040516102089190612b91565b60405180910390f35b6102196107ec565b6040516102269190612b91565b60405180910390f35b6102376107f6565b6040516102449190612b91565b60405180910390f35b61026760048036038101906102629190612bac565b6107fc565b6040516102749190612b67565b60405180910390f35b61029760048036038101906102929190612bff565b61082b565b6040516102a49190612b91565b60405180910390f35b6102b5610843565b6040516102c29190612c3b565b60405180910390f35b6102e560048036038101906102e09190612c56565b610867565b6040516102f3929190612c96565b60405180910390f35b610304610b51565b6040516103119190612cdb565b60405180910390f35b610334600480360381019061032f9190612cf6565b610b5a565b6040516103419190612b91565b60405180910390f35b610364600480360381019061035f9190612bff565b6110da565b6040516103719190612b91565b60405180910390f35b610394600480360381019061038f9190612bff565b6110f2565b6040516103a19190612b91565b60405180910390f35b6103b261113a565b6040516103bf9190612b91565b60405180910390f35b6103d0611140565b6040516103dd9190612b91565b60405180910390f35b6103ee611146565b6040516103fb9190612a51565b60405180910390f35b61041e60048036038101906104199190612c56565b6111d8565b60405161042d93929190612d5d565b60405180910390f35b61043e6112f9565b60405161044b9190612b91565b60405180910390f35b61046e60048036038101906104699190612b0c565b61131d565b60405161047b9190612b67565b60405180910390f35b61048c611340565b6040516104999190612df3565b60405180910390f35b6104bc60048036038101906104b79190612b0c565b611364565b6040516104ca929190612e0e565b60405180910390f35b6104ed60048036038101906104e89190612e37565b611738565b6040516104fa9190612b91565b60405180910390f35b61051d60048036038101906105189190612bff565b6117bf565b60405161052a9190612b91565b60405180910390f35b61053b6117d7565b6040516105489190612c3b565b60405180910390f35b6105596117fb565b6040516105669190612df3565b60405180910390f35b61057761181f565b6040516105849190612b91565b60405180910390f35b60606003805461059c90612ea6565b80601f01602080910402602001604051908101604052809291908181526020018280546105c890612ea6565b80156106155780601f106105ea57610100808354040283529160200191610615565b820191906000526020600020905b8154815290600101906020018083116105f857829003601f168201915b5050505050905090565b60008061062a611825565b905061063781858561182d565b600191505092915050565b600080820361067d576040517f01531e4000000000000000000000000000000000000000000000000000000000815260040160405180910390fd5b60006106888461183f565b90506000600c60008373ffffffffffffffffffffffffffffffffffffffff1673ffffffffffffffffffffffffffffffffffffffff1681526020019081526020016000205411801561071857506000600c60008673ffffffffffffffffffffffffffffffffffffffff1673ffffffffffffffffffffffffffffffffffffffff16815260200190815260200160002054115b61074e576040517f7620cf1900000000000000000000000000000000000000000000000000000000815260040160405180910390fd5b600c60008573ffffffffffffffffffffffffffffffffffffffff1673ffffffffffffffffffffffffffffffffffffffff16815260200190815260200160002054600c60008373ffffffffffffffffffffffffffffffffffffffff1673ffffffffffffffffffffffffffffffffffffffff16815260200190815260200160002054846107d99190612f06565b6107e39190612f77565b91505092915050565b6000600254905090565b600a5481565b600080610807611825565b905061081485828561196f565b61081f858585611a04565b60019150509392505050565b600c6020528060005260406000206000915090505481565b7f000000000000000000000000000000000000000000000000000000000000000081565b6000806000600c60007f000000000000000000000000000000000000000000000000000000000000000073ffffffffffffffffffffffffffffffffffffffff1673ffffffffffffffffffffffffffffffffffffffff1681526020019081526020016000205411610903576040517f7620cf1900000000000000000000000000000000000000000000000000000000815260040160405180910390fd5b6000600c60007f000000000000000000000000000000000000000000000000000000000000000073ffffffffffffffffffffffffffffffffffffffff1673ffffffffffffffffffffffffffffffffffffffff168152602001908152602001600020541161099c576040517f7620cf1900000000000000000000000000000000000000000000000000000000815260040160405180910390fd5b600c60007f000000000000000000000000000000000000000000000000000000000000000073ffffffffffffffffffffffffffffffffffffffff1673ffffffffffffffffffffffffffffffffffffffff16815260200190815260200160002054600c60007f000000000000000000000000000000000000000000000000000000000000000073ffffffffffffffffffffffffffffffffffffffff1673ffffffffffffffffffffffffffffffffffffffff1681526020019081526020016000205485610a679190612f06565b610a719190612f77565b9150600c60007f000000000000000000000000000000000000000000000000000000000000000073ffffffffffffffffffffffffffffffffffffffff1673ffffffffffffffffffffffffffffffffffffffff16815260200190815260200160002054600c60007f000000000000000000000000000000000000000000000000000000000000000073ffffffffffffffffffffffffffffffffffffffff1673ffffffffffffffffffffffffffffffffffffffff1681526020019081526020016000205484610b3e9190612f06565b610b489190612f77565b90509250929050565b60006012905090565b6000801515601060009054906101000a900460ff16151514610bb1576040517f08c379a0000000000000000000000000000000000000000000000000000000008152600401610ba890612ff4565b60405180910390fd5b6001601060006101000a81548160ff0219169083151502179055503373ffffffffffffffffffffffffffffffffffffffff16600860009054906101000a900473ffffffffffffffffffffffffffffffffffffffff1673ffffffffffffffffffffffffffffffffffffffff1614610c53576040517f11845c2100000000000000000000000000000000000000000000000000000000815260040160405180910390fd5b600015156007601e9054906101000a900460ff16151514610ca0576040517f72c936de00000000000000000000000000000000000000000000000000000000815260040160405180910390fd5b8473ffffffffffffffffffffffffffffffffffffffff167f000000000000000000000000000000000000000000000000000000000000000073ffffffffffffffffffffffffffffffffffffffff16148015610d4657508373ffffffffffffffffffffffffffffffffffffffff167f000000000000000000000000000000000000000000000000000000000000000073ffffffffffffffffffffffffffffffffffffffff16145b610d7c576040517fc301786600000000000000000000000000000000000000000000000000000000815260040160405180910390fd5b60008311610db6576040517f01531e4000000000000000000000000000000000000000000000000000000000815260040160405180910390fd5b60008211610df0576040517f01531e4000000000000000000000000000000000000000000000000000000000815260040160405180910390fd5b7f000000000000000000000000000000000000000000000000000000000000000073ffffffffffffffffffffffffffffffffffffffff166323b872dd3330866040518463ffffffff1660e01b8152600401610e4d93929190613014565b6020604051808303816000875af1158015610e6c573d6000803e3d6000fd5b505050506040513d601f19601f82011682018060405250810190610e909190613077565b610ec6576040517f32e02f1f00000000000000000000000000000000000000000000000000000000815260040160405180910390fd5b7f000000000000000000000000000000000000000000000000000000000000000073ffffffffffffffffffffffffffffffffffffffff166323b872dd3330856040518463ffffffff1660e01b8152600401610f2393929190613014565b6020604051808303816000875af1158015610f42573d6000803e3d6000fd5b505050506040513d601f19601f82011682018060405250810190610f669190613077565b610f9c576040517f32e02f1f00000000000000000000000000000000000000000000000000000000815260040160405180910390fd5b82600c60008773ffffffffffffffffffffffffffffffffffffffff1673ffffffffffffffffffffffffffffffffffffffff1681526020019081526020016000206000828254610feb91906130a4565b9250508190555081600c60008673ffffffffffffffffffffffffffffffffffffffff1673ffffffffffffffffffffffffffffffffffffffff168152602001908152602001600020600082825461104191906130a4565b92505081905550611050611af8565b600b8190555061108530600860009054906101000a900473ffffffffffffffffffffffffffffffffffffffff1660065461182d565b61109130600654611bc9565b600061109d8484611c4b565b90506110a93382611c69565b6110b1611ceb565b600b549150506000601060006101000a81548160ff021916908315150217905550949350505050565b600e6020528060005260406000206000915090505481565b60008060008373ffffffffffffffffffffffffffffffffffffffff1673ffffffffffffffffffffffffffffffffffffffff168152602001908152602001600020549050919050565b60095481565b600b5481565b60606004805461115590612ea6565b80601f016020809104026020016040519081016040528092919081815260200182805461118190612ea6565b80156111ce5780601f106111a3576101008083540402835291602001916111ce565b820191906000526020600020905b8154815290600101906020018083116111b157829003601f168201915b5050505050905090565b6000806000801515601060009054906101000a900460ff16151514611232576040517f08c379a000000000000000000000000000000000000000000000000000000000815260040161122990612ff4565b60405180910390fd5b6001601060006101000a81548160ff02191690831515021790555060008503611287576040517f01531e4000000000000000000000000000000000000000000000000000000000815260040160405180910390fd5b600084036112c1576040517f01531e4000000000000000000000000000000000000000000000000000000000815260040160405180910390fd5b6112cb8585611dd3565b8093508194508295505050506000601060006101000a81548160ff0219169083151502179055509250925092565b7f000000000000000000000000000000000000000000000000000000000000000081565b600080611328611825565b9050611335818585611a04565b600191505092915050565b7f000000000000000000000000000000000000000000000000000000000000000081565b60008060001515601060009054906101000a900460ff161515146113bd576040517f08c379a00000000000000000000000000000000000000000000000000000000081526004016113b490612ff4565b60405180910390fd5b6001601060006101000a81548160ff0219169083151502179055507f000000000000000000000000000000000000000000000000000000000000000073ffffffffffffffffffffffffffffffffffffffff168473ffffffffffffffffffffffffffffffffffffffff16148061147d57507f000000000000000000000000000000000000000000000000000000000000000073ffffffffffffffffffffffffffffffffffffffff168473ffffffffffffffffffffffffffffffffffffffff16145b6114b3576040517fc301786600000000000000000000000000000000000000000000000000000000815260040160405180910390fd5b600083116114ed576040517f01531e4000000000000000000000000000000000000000000000000000000000815260040160405180910390fd5b600083600c60008773ffffffffffffffffffffffffffffffffffffffff1673ffffffffffffffffffffffffffffffffffffffff1681526020019081526020016000205461153a91906130d8565b11611571576040517f91b18b2b00000000000000000000000000000000000000000000000000000000815260040160405180910390fd5b60008490508073ffffffffffffffffffffffffffffffffffffffff166323b872dd3330876040518463ffffffff1660e01b81526004016115b393929190613014565b6020604051808303816000875af11580156115d2573d6000803e3d6000fd5b505050506040513d601f19601f820116820180604052508101906115f69190613077565b61162c576040517f32e02f1f00000000000000000000000000000000000000000000000000000000815260040160405180910390fd5b6000611637856121c3565b90506000806116468884612228565b9150915060008290508073ffffffffffffffffffffffffffffffffffffffff1663a9059cbb33846040518363ffffffff1660e01b815260040161168a929190612e0e565b6020604051808303816000875af11580156116a9573d6000803e3d6000fd5b505050506040513d601f19601f820116820180604052508101906116cd9190613077565b611703576040517f32e02f1f00000000000000000000000000000000000000000000000000000000815260040160405180910390fd5b61170b611ceb565b82829650965050505050506000601060006101000a81548160ff0219169083151502179055509250929050565b6000600160008473ffffffffffffffffffffffffffffffffffffffff1673ffffffffffffffffffffffffffffffffffffffff16815260200190815260200160002060008373ffffffffffffffffffffffffffffffffffffffff1673ffffffffffffffffffffffffffffffffffffffff16815260200190815260200160002054905092915050565b600d6020528060005260406000206000915090505481565b7f000000000000000000000000000000000000000000000000000000000000000081565b7f000000000000000000000000000000000000000000000000000000000000000081565b600f5481565b600033905090565b61183a8383836001612493565b505050565b60007f000000000000000000000000000000000000000000000000000000000000000073ffffffffffffffffffffffffffffffffffffffff168273ffffffffffffffffffffffffffffffffffffffff16036118bc577f0000000000000000000000000000000000000000000000000000000000000000905061196a565b7f000000000000000000000000000000000000000000000000000000000000000073ffffffffffffffffffffffffffffffffffffffff168273ffffffffffffffffffffffffffffffffffffffff1603611937577f00000000000000000000000000000000000000000000000000000000000000009050611969565b6040517fc301786600000000000000000000000000000000000000000000000000000000815260040160405180910390fd5b5b919050565b600061197b8484611738565b90507fffffffffffffffffffffffffffffffffffffffffffffffffffffffffffffffff8110156119fe57818110156119ee578281836040517ffb8f41b20000000000000000000000000000000000000000000000000000000081526004016119e59392919061310c565b60405180910390fd5b6119fd84848484036000612493565b5b50505050565b600073ffffffffffffffffffffffffffffffffffffffff168373ffffffffffffffffffffffffffffffffffffffff1603611a765760006040517f96c6fd1e000000000000000000000000000000000000000000000000000000008152600401611a6d9190612c3b565b60405180910390fd5b600073ffffffffffffffffffffffffffffffffffffffff168273ffffffffffffffffffffffffffffffffffffffff1603611ae85760006040517fec442f05000000000000000000000000000000000000000000000000000000008152600401611adf9190612c3b565b60405180910390fd5b611af383838361266a565b505050565b6000600c60007f000000000000000000000000000000000000000000000000000000000000000073ffffffffffffffffffffffffffffffffffffffff1673ffffffffffffffffffffffffffffffffffffffff16815260200190815260200160002054600c60007f000000000000000000000000000000000000000000000000000000000000000073ffffffffffffffffffffffffffffffffffffffff1673ffffffffffffffffffffffffffffffffffffffff16815260200190815260200160002054611bc49190612f06565b905090565b600073ffffffffffffffffffffffffffffffffffffffff168273ffffffffffffffffffffffffffffffffffffffff1603611c3b5760006040517f96c6fd1e000000000000000000000000000000000000000000000000000000008152600401611c329190612c3b565b60405180910390fd5b611c478260008361266a565b5050565b6000611c618284611c5c9190612f06565b61288f565b905092915050565b600073ffffffffffffffffffffffffffffffffffffffff168273ffffffffffffffffffffffffffffffffffffffff1603611cdb5760006040517fec442f05000000000000000000000000000000000000000000000000000000008152600401611cd29190612c3b565b60405180910390fd5b611ce76000838361266a565b5050565b600c60007f000000000000000000000000000000000000000000000000000000000000000073ffffffffffffffffffffffffffffffffffffffff1673ffffffffffffffffffffffffffffffffffffffff16815260200190815260200160002054600b54611d589190612f77565b600981905550600c60007f000000000000000000000000000000000000000000000000000000000000000073ffffffffffffffffffffffffffffffffffffffff1673ffffffffffffffffffffffffffffffffffffffff16815260200190815260200160002054600b54611dcb9190612f77565b600a81905550565b6000806000808503611e11576040517f01531e4000000000000000000000000000000000000000000000000000000000815260040160405180910390fd5b60008403611e4b576040517f01531e4000000000000000000000000000000000000000000000000000000000815260040160405180910390fd5b6000600c60007f000000000000000000000000000000000000000000000000000000000000000073ffffffffffffffffffffffffffffffffffffffff1673ffffffffffffffffffffffffffffffffffffffff16815260200190815260200160002054118015611f1957506000600c60007f000000000000000000000000000000000000000000000000000000000000000073ffffffffffffffffffffffffffffffffffffffff1673ffffffffffffffffffffffffffffffffffffffff16815260200190815260200160002054115b611f4f576040517f91b18b2b00000000000000000000000000000000000000000000000000000000815260040160405180910390fd5b6000611f7b7f000000000000000000000000000000000000000000000000000000000000000087610642565b9050848111611f8f57859350809250612010565b6000611fbb7f000000000000000000000000000000000000000000000000000000000000000087610642565b9050868111611fcf5780945085935061200e565b86866040517fecdabbd9000000000000000000000000000000000000000000000000000000008152600401612005929190612c96565b60405180910390fd5b505b60007f000000000000000000000000000000000000000000000000000000000000000073ffffffffffffffffffffffffffffffffffffffff166323b872dd3330886040518463ffffffff1660e01b815260040161206f93929190613014565b6020604051808303816000875af115801561208e573d6000803e3d6000fd5b505050506040513d601f19601f820116820180604052508101906120b29190613077565b905060007f000000000000000000000000000000000000000000000000000000000000000073ffffffffffffffffffffffffffffffffffffffff166323b872dd3330886040518463ffffffff1660e01b815260040161211393929190613014565b6020604051808303816000875af1158015612132573d6000803e3d6000fd5b505050506040513d601f19601f820116820180604052508101906121569190613077565b90508180156121625750805b612198576040517fc6761a0500000000000000000000000000000000000000000000000000000000815260040160405180910390fd5b6121a28686612909565b506121ad8686611c4b565b93506121b93385611c69565b5050509250925092565b600060018214806121d45750600082145b156121e157819050612223565b60006103e87f0000000000000000000000000000000000000000000000000000000000000000846122129190612f06565b61221c9190612f77565b9050809150505b919050565b60008060007f000000000000000000000000000000000000000000000000000000000000000090507f000000000000000000000000000000000000000000000000000000000000000073ffffffffffffffffffffffffffffffffffffffff168573ffffffffffffffffffffffffffffffffffffffff16036122c7577f000000000000000000000000000000000000000000000000000000000000000090505b83600c60008773ffffffffffffffffffffffffffffffffffffffff1673ffffffffffffffffffffffffffffffffffffffff1681526020019081526020016000205461231291906130a4565b600c60008773ffffffffffffffffffffffffffffffffffffffff1673ffffffffffffffffffffffffffffffffffffffff168152602001908152602001600020819055506000600c60008773ffffffffffffffffffffffffffffffffffffffff1673ffffffffffffffffffffffffffffffffffffffff16815260200190815260200160002054600b546123a49190612f77565b9050600081600c60008573ffffffffffffffffffffffffffffffffffffffff1673ffffffffffffffffffffffffffffffffffffffff168152602001908152602001600020546123f391906130d8565b905080600c60008573ffffffffffffffffffffffffffffffffffffffff1673ffffffffffffffffffffffffffffffffffffffff1681526020019081526020016000205461244091906130d8565b600c60008573ffffffffffffffffffffffffffffffffffffffff1673ffffffffffffffffffffffffffffffffffffffff168152602001908152602001600020819055508281945094505050509250929050565b600073ffffffffffffffffffffffffffffffffffffffff168473ffffffffffffffffffffffffffffffffffffffff16036125055760006040517fe602df050000000000000000000000000000000000000000000000000000000081526004016124fc9190612c3b565b60405180910390fd5b600073ffffffffffffffffffffffffffffffffffffffff168373ffffffffffffffffffffffffffffffffffffffff16036125775760006040517f94280d6200000000000000000000000000000000000000000000000000000000815260040161256e9190612c3b565b60405180910390fd5b81600160008673ffffffffffffffffffffffffffffffffffffffff1673ffffffffffffffffffffffffffffffffffffffff16815260200190815260200160002060008573ffffffffffffffffffffffffffffffffffffffff1673ffffffffffffffffffffffffffffffffffffffff168152602001908152602001600020819055508015612664578273ffffffffffffffffffffffffffffffffffffffff168473ffffffffffffffffffffffffffffffffffffffff167f8c5be1e5ebec7d5bd14f71427d1e84f3dd0314c0f7b2291e5b200ac8c7c3b9258460405161265b9190612b91565b60405180910390a35b50505050565b600073ffffffffffffffffffffffffffffffffffffffff168373ffffffffffffffffffffffffffffffffffffffff16036126bc5780600260008282546126b091906130a4565b9250508190555061278f565b60008060008573ffffffffffffffffffffffffffffffffffffffff1673ffffffffffffffffffffffffffffffffffffffff16815260200190815260200160002054905081811015612748578381836040517fe450d38c00000000000000000000000000000000000000000000000000000000815260040161273f9392919061310c565b60405180910390fd5b8181036000808673ffffffffffffffffffffffffffffffffffffffff1673ffffffffffffffffffffffffffffffffffffffff16815260200190815260200160002081905550505b600073ffffffffffffffffffffffffffffffffffffffff168273ffffffffffffffffffffffffffffffffffffffff16036127d85780600260008282540392505081905550612825565b806000808473ffffffffffffffffffffffffffffffffffffffff1673ffffffffffffffffffffffffffffffffffffffff168152602001908152602001600020600082825401925050819055505b8173ffffffffffffffffffffffffffffffffffffffff168373ffffffffffffffffffffffffffffffffffffffff167fddf252ad1be2c89b69c2b068fc378daa952ba7f163c4a11628f55a4df523b3ef836040516128829190612b91565b60405180910390a3505050565b600060038211156128f657819050600060016002846128ae9190612f77565b6128b891906130a4565b90505b818110156128f05780915060028182856128d59190612f77565b6128df91906130a4565b6128e99190612f77565b90506128bb565b50612904565b6000821461290357600190505b5b919050565b600082600d60003373ffffffffffffffffffffffffffffffffffffffff1673ffffffffffffffffffffffffffffffffffffffff168152602001908152602001600020600082825461295a91906130a4565b9250508190555081600e60003373ffffffffffffffffffffffffffffffffffffffff1673ffffffffffffffffffffffffffffffffffffffff16815260200190815260200160002060008282546129b091906130a4565b925050819055506000905092915050565b600081519050919050565b600082825260208201905092915050565b60005b838110156129fb5780820151818401526020810190506129e0565b60008484015250505050565b6000601f19601f8301169050919050565b6000612a23826129c1565b612a2d81856129cc565b9350612a3d8185602086016129dd565b612a4681612a07565b840191505092915050565b60006020820190508181036000830152612a6b8184612a18565b905092915050565b600080fd5b600073ffffffffffffffffffffffffffffffffffffffff82169050919050565b6000612aa382612a78565b9050919050565b612ab381612a98565b8114612abe57600080fd5b50565b600081359050612ad081612aaa565b92915050565b6000819050919050565b612ae981612ad6565b8114612af457600080fd5b50565b600081359050612b0681612ae0565b92915050565b60008060408385031215612b2357612b22612a73565b5b6000612b3185828601612ac1565b9250506020612b4285828601612af7565b9150509250929050565b60008115159050919050565b612b6181612b4c565b82525050565b6000602082019050612b7c6000830184612b58565b92915050565b612b8b81612ad6565b82525050565b6000602082019050612ba66000830184612b82565b92915050565b600080600060608486031215612bc557612bc4612a73565b5b6000612bd386828701612ac1565b9350506020612be486828701612ac1565b9250506040612bf586828701612af7565b9150509250925092565b600060208284031215612c1557612c14612a73565b5b6000612c2384828501612ac1565b91505092915050565b612c3581612a98565b82525050565b6000602082019050612c506000830184612c2c565b92915050565b60008060408385031215612c6d57612c6c612a73565b5b6000612c7b85828601612af7565b9250506020612c8c85828601612af7565b9150509250929050565b6000604082019050612cab6000830185612b82565b612cb86020830184612b82565b9392505050565b600060ff82169050919050565b612cd581612cbf565b82525050565b6000602082019050612cf06000830184612ccc565b92915050565b60008060008060808587031215612d1057612d0f612a73565b5b6000612d1e87828801612ac1565b9450506020612d2f87828801612ac1565b9350506040612d4087828801612af7565b9250506060612d5187828801612af7565b91505092959194509250565b6000606082019050612d726000830186612b82565b612d7f6020830185612b82565b612d8c6040830184612b82565b949350505050565b6000819050919050565b6000612db9612db4612daf84612a78565b612d94565b612a78565b9050919050565b6000612dcb82612d9e565b9050919050565b6000612ddd82612dc0565b9050919050565b612ded81612dd2565b82525050565b6000602082019050612e086000830184612de4565b92915050565b6000604082019050612e236000830185612c2c565b612e306020830184612b82565b9392505050565b60008060408385031215612e4e57612e4d612a73565b5b6000612e5c85828601612ac1565b9250506020612e6d85828601612ac1565b9150509250929050565b7f4e487b7100000000000000000000000000000000000000000000000000000000600052602260045260246000fd5b60006002820490506001821680612ebe57607f821691505b602082108103612ed157612ed0612e77565b5b50919050565b7f4e487b7100000000000000000000000000000000000000000000000000000000600052601160045260246000fd5b6000612f1182612ad6565b9150612f1c83612ad6565b9250828202612f2a81612ad6565b91508282048414831517612f4157612f40612ed7565b5b5092915050565b7f4e487b7100000000000000000000000000000000000000000000000000000000600052601260045260246000fd5b6000612f8282612ad6565b9150612f8d83612ad6565b925082612f9d57612f9c612f48565b5b828204905092915050565b7f4c6f636b65640000000000000000000000000000000000000000000000000000600082015250565b6000612fde6006836129cc565b9150612fe982612fa8565b602082019050919050565b6000602082019050818103600083015261300d81612fd1565b9050919050565b60006060820190506130296000830186612c2c565b6130366020830185612c2c565b6130436040830184612b82565b949350505050565b61305481612b4c565b811461305f57600080fd5b50565b6000815190506130718161304b565b92915050565b60006020828403121561308d5761308c612a73565b5b600061309b84828501613062565b91505092915050565b60006130af82612ad6565b91506130ba83612ad6565b92508282019050808211156130d2576130d1612ed7565b5b92915050565b60006130e382612ad6565b91506130ee83612ad6565b925082820390508181111561310657613105612ed7565b5b92915050565b60006060820190506131216000830186612c2c565b61312e6020830185612b82565b61313b6040830184612b82565b94935050505056fea2646970667358221220fd95dff3f23e00956c4338106fa82c94c802f04a710dc834d1b0720feeb566fe64736f6c634300081c0033",
  "linkReferences": {},
  "deployedLinkReferences": {}
}